:020000040800F2
:1000000000280020D109000899060008BD09000851
:10001000BD090008BD090008BD0900080000000076
:100020000000000000000000000000008D0A000831
:10003000BD09000800000000290A00085525000835
:10004000090C0008090C0008090C0008090C00083C
:10005000090C0008090C0008090C0008090C00082C
:10006000090C0008090C0008090C0008090C00081C
:10007000090C0008090C0008090C0008090C00080C
:10008000090C0008090C0008090C0008090C0008FC
:10009000090C0008090C0008090C0008090C0008EC
:1000A000090C0008090C0008090C0008090C0008DC
:1000B000090C0008090C0008090C0008090C0008CC
:1000C000090C0008090C0008090C0008090C0008BC
:1000D000090C0008090C0008090C0008090C0008AC
:1000E000090C0008090C0008090C0008090C00089C
:1000F000090C0008090C0008090C0008090C00088C
:10010000090C0008090C0008090C0008090C00087B
:10011000090C0008090C0008090C0008090C00086B
:10012000090C0008090C0008090C0008090C00085B
:10013000090C0008090C0008090C0008090C00084B
:10014000090C0008090C0008090C0008090C00083B
:10015000090C0008090C0008090C0008090C00082B
:10016000090C0008090C0008090C0008090C00081B
:10017000090C0008090C0008090C0008090C00080B
:10018000090C0008090C0008090C0008090C0008FB
:08019000090C0008090C00082D
:1001980053B94AB9002908BF00281CBF4FF0FF31E6
:1001A8004FF0FF3000F00CB8ADF1080C6DE904CE4B
:1001B80000F008F8DDF804E0DDE9022304B0704738
:1001C800704700BF2DE9F04786468C460846089ED2
:1001D800154674461946002B40F0C2808542B2FA93
:1001E80082F245D94AB1C2F1200300FA02FC2EFA84
:1001F80003F3954043EA0C0C94404FEA154EA8B21D
:10020800BCFBFEF8230C0EFB18CC08FB00F943EAF4
:100218000C43994528D9EB1808F1FF3704D29945C2
:1002280002D9A8F102072B44A3EB0903A4B2B3FB3C
:10023800FEFC0EFB1C330CFB00F044EA0344A04216
:1002480014D92C190CF1FF3304D2A04202D9ACF115
:1002580002032C44241A43EA07401EB1D440002369
:1002680034607360BDE8F0874746DDE76346F1E731
:1002780092BB431B01214FEA154EAFB2B3FBFEFC04
:10028800200C0EFB1C330CFB07F840EA034398458F
:1002980062D9EB180CF1FF3004D2984502D9ACF1C1
:1002A80002002B44A3EB0803A4B2B3FBFEFC0EFB35
:1002B8001C330CFB07F744EA0344A7424ED92C1918
:1002C8000CF1FF3304D2A74202D9ACF102032C444B
:1002D800E41B43EA0040C0E7C2F1200320FA03F11F
:1002E800954090402EFA03F303434FEA154EAFB200
:1002F800B1FBFEFC0EFB1C10190C0CFB07F841EAC5
:100308000041884504FA02F422D969180CF1FF303B
:1003180004D2884502D9ACF102002944A1EB0801B6
:100328009BB2B1FBFEFC0EFB1C110CFB07F743EA6A
:1003380001439F420ED9EB180CF1FF3104D29F42C2
:1003480002D9ACF102012B44DB1B41EA004192E7E0
:100358006046E3E76146F7E76046A3E76346B7E729
:10036800834206D916B9002108467BE7C6E900E0B2
:10037800F9E7B3FA83F78FB9834201D3724508D8F6
:10038800BEEB020460EB030301209C461EB900216A
:1003980068E73846FAE7C6E9004CF8E7C7F1200CE9
:1003A800BB4022FA0CF41C432EFA0CF120FA0CF391
:1003B800B84001434FEA14490EFA07F5B3FBF9F8C0
:1003C8001FFA84FE09FB18300B0C08FB0EFA43EAEF
:1003D80000439A4502FA07F240D9E31808F1FF30C2
:1003E80004D29A4502D9A8F102002344A3EB0A03D8
:1003F80089B2B3FBF9F809FB183308FB0EFE41EA92
:1004080003418E452CD9611808F1FF3304D28E457B
:1004180002D9A8F10203214443EA0040A0FB029854
:10042800A1EB0E014145CE46434602D306D14D45C8
:1004380004D2B9EB020E68EB04030138002EA6D0F3
:10044800B5EB0E0261EB030101FA0CFC22FA07F38B
:100458004CEA0303F940C6E9003198E74046C5E78E
:100468004346D9E72DE9F04F9BB04D4D284604F09F
:1004780041FC40B94B4803F09FF96FF01204204645
:100488001BB0BDE8F08F4FF480724FF4FA63CDE9EA
:100498000423DFF81491CDF80C904FF404714AF658
:1004A8004443CDE90113D5F8088001AAD8F80030F3
:1004B800012128469847041E03DA3C4803F07CF9DA
:1004C800DDE706AFBB4600264FF0030A4FF0FF32C8
:1004D8004FF0FF335946484602F060FB041E01DA2C
:1004E8003348EBE75BF8040B324CB6FBFAF303EB4B
:1004F8004303F31A01229A40A646002300F1020C96
:1005080034F9021B91FBF2F120F8231003F11001DA
:1005180001F03F013EF9111091FBF2F12CF8231084
:100528000133402BECD10136142ECFD1D8F80C3042
:1005380006991B484FF480729847041E04DA01217B
:100548001D4803F027F99AE7D5F808801448D8F829
:100558001030002201219847041E01DA1748ADE740
:10056800DFF83C900126D8F80C3057F8041F4FF4F8
:10057800807248469847041E06F1010601DA3146A2
:10058800DEE7142EEFD1AB6805481B690222012172
:100598009847041EE2DB0A4803F00EF900246EE7D0
:1005A8003C5200080E5A00085C010020235A00083B
:1005B800425A0008885900085E5A00087C5A000808
:1005C800955A0008014B1B68184700BF000000201F
:1005D800014B1860704700BF0000002030B585B09F
:1005E80004460D4610220021684604F0D1FC02237F
:1005F8008DF802302A46044B01932146684603F0E1
:10060800FBF805B030BD00BFCD05000880B5054634
:100618000E461746984602F0CDFE034604F024FD28
:10062800DFF81890044649F800304246304639460B
:10063800A84754F8090000F0DDF900BF08000000E1
:10064800034A536823F0020353600020704700BF39
:10065800002004E0084B1A6842F480721A601A6895
:1006680042F400721A601A6842F480621A60034BFE
:10067800034A1A60704700BF003C02402001002076
:100688000024F400014B03600020704778550008EF
:1006980008B5034B1B689847BDE8084000F026B82A
:1006A8000400002030BFFFF7FDBF00BF2DE9F04177
:1006B8000B4EDFF8308006EB0807CC1B05463246A8
:1006C8000949204604F056FCA01942460021083C7E
:1006D80004F05EFC2C6707F10800BDE8F08100BF5C
:1006E800000000000400000078550008074A9368DD
:1006F80093F90E10002907DB526993421FBF044A81
:10070800536843F080535360704700BF001A0020BD
:1007180000ED00E070B5264B15469A6A12F0100FEE
:100728009A6A14BF1124102412F0080F9A6A18BF8D
:100738001224920706460AD5586B9A6A140634D5CD
:1007480019B19A6A22F080029A62132401E06FF0CC
:100758001500174B9A6A12F0010F9A6A18BF1424F1
:1007680012F0200F9A6A18BF1524D20602D49B6A89
:100778009B070AD50E4B5B68190506D5314600F074
:10078800F9F910B180F309880224094B9A6A920694
:1007980042BF5A6A22F400525A629A6A42F0FF0231
:1007A8009A6200232B70204670BD6FF01500CCE7CD
:1007B80000ED00E0134B9A6A12F0007F9A6A14BFAA
:1007C8001E201D2012F0807F9A6A18BF1F2012F485
:1007D800002F9A6A18BF212012F4802F9A6A18BF36
:1007E800222012F4003F9A6A18BF232012F4803F97
:1007F8009A6A6FEA02426FEA12429A6218BF24208C
:10080800704700BF00ED00E010B5194B0246986A2A
:100818009C6A10F4805F14BF1720162014F4006F30
:100828009C6A18BF1820A40509D5986B986A00041B
:1008380004D51AB19A6A22F400429A6219200C4B24
:100848009A6A12F4806F9A6A18BF1A20D2050CD4DB
:100858009B6A13F4005F18BF1C20054A936A43F48F
:100868007F43936200230B7010BD1B20F5E700BF88
:1008780000ED00E0F0B5484B5B688BB00446C3F36D
:100888000803002585F31188BFF36F8F02F07F40BE
:10089800B0F17F4F11D102F00C0008280DD01007DD
:1008A8004CBF0C4601250022033B8DF80720032B83
:1008B80005D8DFE803F0246367602C46F3E70023DC
:1008C8009DF80720CAB902AE04F1200720686168C4
:1008D800324603C20834BC421646F7D1099A002DA5
:1008E80054D0C2F3080121B96FEA52226FEA4222BA
:1008F800099202A9184603F055FA0BB0F0BD264B31
:10090800DA6A9107DBD4DA6A002AD8DBDA6A52009D
:10091800D5D55A69A16942F480725A61BFF34F8FE5
:10092800BFF36F8F5A6931F8021C22F480725A6142
:10093800BFF34F8FBFF36F8F4DF6027291420AD00B
:100948009A6AD2B24AB10DF1070201212046FFF797
:10095800E1FE0346B4E72368B2E79A6A12F47F4FD0
:1009680005D00DF107010120FFF74EFFF1E79B6A63
:10097800B3F5803FA3D3FFF71DFFEAE70DF10702A8
:100988000021E3E70DF107010020EDE722F4FF72F3
:1009980022F00102ACE700BF00ED00E0044B5A6909
:1009A80042F010025A615A6922F008025A617047EF
:1009B80000ED00E0EFF30880EFF3098101B572461E
:1009C800FFF758FF01BD00BF102080F311880848C9
:1009D8004FF40461401880F30988EFF31480022172
:1009E800084380F31488BFF36F8F00F083F800008A
:1009F800401A0020084B9B6883420BD1EFF3058314
:100A080043B1064B5A6842F080525A605A6A22F43F
:100A180000425A6204F073BA001A002000ED00E0A8
:100A280015498A684FF030001044EFF3098C80E8CC
:100A3800F01F102080F31288BFF36F8F0F4F4FF015
:100A480000664A698A603E604FF070041419206895
:100A58000B4C2060506F0023536780F3118804B556
:100A6800104600F0EBF8BDE8044002F1300090E8D1
:100A7800F01F8CF309887047001A002004ED00E08D
:100A8800301700201EF0040F0CBFEFF30880EFF3BF
:100A98000980816911F8021C0229FFD001B572464C
:100AA80003F086F901BD00BF40B2002807DB044A05
:100AB8004109012300F01F00834042F821307047AC
:100AC80000E100E040B20028A8BF00F1604001F159
:100AD8000101B8BF064B4FEA0111ACBF00F56140F8
:100AE80000F00F00C9B2B4BF195480F80013704762
:100AF80014ED00E00F4A08B50F4B22F07F029A6010
:100B0800BFF34F8FBFF36F8FD3F8882022F47002A2
:100B1800C3F88820EFF3148323F0040383F31488C5
:100B2800BFF36F8F01F076FF02F0D2FC00F05CF8A3
:100B380001F0B4FF0000000800ED00E042F8203C9E
:100B4800009B42F81C3C0A49019B42F8183C029B56
:100B580042F8143C21F001014FF0807342F8043C44
:100B680042F8081C0023203A02654367704700BF1B
:100B780015060008094A0346906870B113F1160F6C
:100B8800006E05D0A0F140029A4205D8834203D2F4
:100B9800814228BF0020704700207047001A0020BB
:100BA80008B51546094A0A4B9060026F1A600E464E
:100BB80000F044F82C4686F309880020054B984736
:100BC8002046002100220023034C2047001A002061
:100BD80030170020C93D000815060008014B1022F7
:100BE8001A61704700ED00E0044800231021C21884
:100BF8000133562B82F80013F9D1704700E100E069
:100C080008B5EFF30583064A103B02EBC30152F81F
:100C1800330049688847BDE80840FFF767BD00BF53
:100C280050520008024B034A0348012100F076B8ED
:100C3800000002200000002078550008026E054BD5
:100C4800403A1A60044A4021C3E9011218460121BA
:100C580000F06EB83417002000000B15084AC2F8DF
:100C680098000B6823F01F03034343F01003C2F8F6
:100C78009C308B6843F00103C2F8A030704700BF76
:100C880000ED00E02DE9F043DFF8608085B00E4606
:100C98001F4604464FF00009B14523DA6068D8B111
:100CA8003FB1411E08421BD11F2819D92368194298
:100CB80016D12368019303F097F8A36803430393BD
:100CC800D8F89050C5F30725D0B2013DA84207D8FF
:100CD80001A9FFF7C3FF421C09F101090C34DBE746
:100CE8006FF01502104605B0BDE8F08300ED00E096
:100CF800044B0522C3F89420BFF34F8FBFF36F8FC7
:100D0800704700BF00ED00E0BFF35F8F024B002289
:100D1800C3F89420704700BF00ED00E010B5034C05
:100D280001232278FFF7AEFF207010BD301A002093
:100D380008B50B4A00231278FFF7A4FF10F1160F2D
:100D480007D0084A0021D2F89030C3F3072398420D
:100D580000DB08BDC2F89800C2F8A0100130F2E725
:100D6800301A002000ED00E02DE9F043534B544CBD
:100D7800D3F890302568C3F307239D4285B000F26D
:100D88009A80FFF7C1FF00200C2685421AD14D4CEE
:100D98004D4F25706846FFF775FCDFF82081DFF8B6
:100DA8002C9106460025AE4213D1237843490020F2
:100DB800D1F89020C2F30722934276DBFFF798FF21
:100DC800002042E0616806FB0011FFF747FF013091
:100DD800DBE7009800EB05114FEA051CCB683B40A8
:100DE800B3F5000F48D00AD8B3F5001F30D0B3F5DB
:100DF800800F36D0B3F5801F10D00135D3E7B3F19B
:100E0800807F42D0B3F1007FF7D150F80C3088686A
:100E18004A6802F0E9FF40F4802009E050F80C30FD
:100E280088684A6802F0E0FF40F0885040F43020BB
:100E3800CDE901230390D8F890302078C3F3072335
:100E4800013B98422AD96FF0150005B0BDE8F08340
:100E580050F80C3088684A6802F0C6FF40EA09007A
:100E6800E6E750F80C3088684A6802F0BDFF40F0A9
:100E7800E06040F40030DBE750F80C3088684A68DE
:100E880002F0B2FF40F08270D2E750F80C30886868
:100E98004A6802F0A9FF40F08870C9E701A9FFF786
:100EA800DDFE237801332370A7E7C1F89830C1F835
:100EB800A00001337CE74FF0FF30C6E700ED00E00B
:100EC80084550008301A00200000F0FF00000811C7
:100ED80008B5024B1B689847002008BD4017002042
:100EE800034B044A1860937843F0020393707047E9
:100EF800401700200800002008B50649064821F0E0
:100F08000701C1F1005202F5003202F0FEFE002096
:100F180008BD00BF47280020441700202DE9F041F4
:100F2800104E114F054600244FF001082B787169C7
:100F38001A19D2B208FA02F201EA02008A4309D168
:100F480053FA84F3706157F833201AB107EBC303DF
:100F5800596890476A780134E3B29A42E6D2BDE80C
:100F6800F08100BF003C014050170020044B18449A
:100F780000230133994200F8012BFADC704700BFC7
:100F88002C01002007B5062201210020FFF7EEFF03
:100F9800002211460620FFF795FD01210846072289
:100FA800FFF7E4FF002211460720FFF78BFD082218
:100FB80001210220FFF7DAFF002211460820FFF77F
:100FC80081FD092201210320FFF7D0FF00221146ED
:100FD8000920FFF777FD0A2201210420FFF7C6FF49
:100FE800002211460A20FFF76DFD05210846172249
:100FF800FFF7BCFF002211461720FFF763FD2822E8
:1010080006210A20FFF7B2FF002211462820FFF729
:1010180059FD442205484FF48043CDE900238368F5
:1010280069461B68984703B05DF804FB2451000823
:10103800034660B1B0FA80F2C2F11F02D2B205498C
:101048008856054A11680B431360FFF72DBDFF2230
:10105800F5E700BF2C010020003C0140024A13685C
:1010680023EA000313607047003C0140032921D89C
:10107800DFE801F0020C10190F4B9A6822EA00020F
:101088009A60DA6822EA0002DA6070470A4B9A68C6
:101098000243F5E7084BDA680243DA609A6822EA05
:1010A80000029A607047044B9A6802439A60DA68B3
:1010B8001043D860704700BF003C014030B5B0B164
:1010C800B0FA80F3C3F11F03DBB20B4850F833408A
:1010D8008C4204D100EBC3056D68954205D044B934
:1010E80040F8331000EBC3004260002030BDFF23FE
:1010F800EBE76FF00F00F9E75017002060B1B0FA86
:1011080080F3C3F11F03DBB2044A002142F8331015
:1011180002EBC30251607047FF23F5E75017002028
:1011280000F00302043292000F23934043EA900038
:10113800C3B20233054A52F82320030C02EA1040D6
:1011480093FAA3F3B3FA83F3D84070470038014009
:1011580038B50888254BC0F30B0007281B680D46D7
:10116800144614D810B96FF0850038BD0238052828
:1011780006D8DFE800F03203323020284FF4FA4373
:1011880023602968B1F5805F29D20020EDE7442863
:101198000ED82F28E7D900F57D61C1F30B01012294
:1011A8008A4013490A42EBD14028DCD15B08E7E7C3
:1011B800A828E5D0D7E700F0ADF84FF4C072C3080F
:1011C80053439B08DCE700F0A5F84FF4C072C3084E
:1011D8005343DB08D4E7074BD2E70023D0E7C1F33A
:1011E80013310131B3FBF1F32360CEE72001002076
:1011F8001101100000127A0070B5424D424C00F007
:10120800ABF8284602F0AFFE01F07EFAA3683F4A29
:10121800C3F30313D35C20FA03F613781D41AE42DF
:1012280002D2284601F0E0FA236843F480232360C1
:10123800236843F480332360334B1A689203FCD548
:101248005A6F42F001025A675A6F9407FCD59A68A0
:1012580002F00C02082A17D11A68900707D41A68F6
:1012680042F001021A60284A13689907FCD5264BF8
:101278009A6822F003029A609A6812F00C0FFBD168
:101288009A6822F0F0029A601F4C236823F080735A
:101298002360636823F4403343F4803363606368F6
:1012A80023F0706343F00063636000F037F823684D
:1012B80043F08073236023689B01FCD5A36823F067
:1012C800F003A360A36823F0030343F00203A360C1
:1012D8000D4CA36803F00C03082BFAD1AE4202D3DD
:1012E800284601F081FA0A4B064A1A60A36823F4DB
:1012F800E05343F48053A360A36823F46043A360DE
:10130800002070BD00D8B80500380240BF5B000857
:10131800200100200048704700127A00094B0A4952
:101328005A681140094A0A435A605A68084922F41F
:10133800403242F480325A605A681140054A0A43E2
:101348005A607047003802400080BFFF08604000C4
:101358000080BFF008604008064B1A6C42F08052CB
:101368001A641B6C82B003F080530193019B02B096
:10137800704700BF0038024008B5074803F0BAFCC0
:1013880038B10648FFF7ACFD0448FFF721F9002003
:1013980008BD6FF01200FBE714520008A9130008FB
:1013A8000A2838B5074D044604D1AB680D215B689F
:1013B80028469847AB6803485B68E1B298472046DF
:1013C80038BD00BF145200082DE9F04143681446A7
:1013D800D3E904828A4213D91C2508469E694D43E5
:1013E80000F05CFA084B1B5C434477195B689BB2BE
:1013F800636073596370BB7923700020BDE8F08186
:101408006FF01500FAE700BF015B000870B50546EC
:101418004668154C204603F06DFCF0B1A3682046E1
:101428001B68314698470446D0B9B36828469847A0
:1014380023461C2120467269934208D32A69002357
:1014480013602A6953602A699360204670BDB269A7
:1014580001FB032201339071EDE76FF01204F4E70A
:101468006FF00404F1E700BF245100082DE9F04FA4
:1014780093B0D0F804B001904FF01C0903A8DBF832
:1014880018A0DBF810700E46144609FB01F903F0AA
:1014980011FCDBF81420B2420AEB090540F2DB80AC
:1014A800AA792AB16FF00F08404613B0BDE8F08F53
:1014B8003146384602F09BFD80460028F2D1019B58
:1014C8003146586802F0A7FD628802F47E62B2F5E0
:1014D8007E6F09D10123AB716B71A3696B6163697D
:1014E8002B6185F81880DFE722695169B1F5803FE3
:1014F80080F0B1806178490704D19BF80C30002B4B
:1015080000F00E81A188E3888B4240F0A480042B70
:1015180003D0013B012B00F29E80137FC3F380129E
:10152800B2EBD31F40F097800123AB71A3696B61C5
:10153800627802F007024AF8092063692B61A388E0
:10154800AB60E388EB6023691B7FC3F380132B76C2
:101558002369D3E90010012A02BF04915A68039253
:101568002268C2F3C33218BFCDE90310032A72D828
:10157800DFE802F0160210134FF480320D92627801
:1015880002F00702012A0DD0022A1CD0002A62D1DB
:10159800802219E04FF40032F0E74FF44032EDE7D3
:1015A8000022EBE71B7F40220592C3F38102C3F3BD
:1015B8000113012A00F0B480022A0CD0002A4AD173
:1015C8004FF4806208E000221B7F0592C3F30112EA
:1015D800C3F38103EDE70022012B089200F0A080FD
:1015E800022B3BD0002B36D14FF4007307932B7E90
:1015F8001B0206935AF809309A1E534253412B7125
:10160800A288002A92FAA2F3B3FA83F3464A08BFE3
:101618004FF0FF33204652F82330E2880993002A1E
:1016280092FAA2F3B3FA83F3404A08BF4FF0FF33AC
:1016380052F823300A93297900F00EFA109029798C
:10164800204600F017FA63782278119013F0070308
:1016580006D0072A07D96FF0150825E70023C5E744
:10166800072A88BF2370207800F01EF923690C90A0
:10167800587F00F00F0002F08BFE0F9003A802F0D5
:1016880060FE80000E902A792369002A35D0A2884E
:101698005B69B3FBF2F330460B9300F0FFF803AA43
:1016A8000146384601F05EF8304600F0F7F8204C65
:1016B800225CD35943F01003D3512B7E3BB1304603
:1016C80000F0ECF8225CD35943F00803D3510E9B89
:1016D800042B304613D100F0E1F8235C3B4430463C
:1016E8005A6942F004025A6100F0D8F8235C3B447E
:1016F8005A6942F080025A61D6E6E288C8E700F0EB
:10170800CDF8235C3B4430465A6922F004025A6102
:1017180000F0C4F8235C3B445A6922F08002EAE7EF
:101728006FF08508C0E600BFEC550008F8550008C2
:10173800015B00082DE9F04143689D69D3E9046322
:101748001C228B4207460C4602FB015526D995F808
:101758000580B8F1000F04D00023AB710020BDE86C
:10176800F081304600F040F90028F7D0204600F01C
:1017780095F80C4B1A5C935923F0100393512146AA
:10178800304600F059F97868214602F044FC2146B9
:10179800304602F02CFC85F80680DFE76FF0150074
:1017A800DDE700BF015B00082DE9F84F9946436863
:1017B8009246D3E904528A420C4613D94FF01C0BC7
:1017C80028469F690BFB01FB02F011FC07EB0B0895
:1017D800064600285DD157F80B30012B07D033F0AF
:1017E800020333D06FF015063046BDE8F88F204667
:1017F80000F054F8DFF8A0B01BF800302B44204666
:10180800C3F80CA000F04AF81BF800302B44C3F8CA
:10181800089098F80430DFF8809020464BB300F029
:101828003DF819F80010D8F808300A98B0FBF3F31F
:1018380029444A68120C120413434B60012388F8A8
:1018480006302146284600F0C1F8CDE7204600F0D2
:1018580025F8DFF844B01BF800302B442046C3F8C5
:1018680008A000F01BF81BF800302B44C3F80C90BC
:10187800CFE700F013F819F80020D8F80C100A98F0
:10188800B0FBF1F72A4453681B0C1B041F43576035
:10189800D4E76FF00F06A7E7015B0008014B53F888
:1018A800200070478C570008014B53F82000704700
:1018B8006C570008014B53F8213018474C57000863
:1018C800014B53F8213018472C57000808B5044B32
:1018D80053F821309847003818BF012008BD00BFD1
:1018E8000C57000808B5044B53F8213098470038C6
:1018F80018BF012008BD00BFEC560008014B53F883
:1019080021301847CC560008014B53F821301847AE
:10191800AC560008014B53F8213018478C56000884
:1019280008B5044B53F821309847003818BF0120F8
:1019380008BD00BF6C560008084A10B552F82120AF
:10194800074CA25C835813F0100304D0FFF7CAFFBA
:1019580000F0010010BD1846FAE700BF8C570008D8
:10196800095B0008084A10B552F82120074CA25C10
:10197800835813F0080304D0FFF7A8FF00F0010014
:1019880010BD1846FAE700BF8C570008095B00082D
:101998000C4B0D4A53F8213070B5D35C034405460F
:1019A8005B691B060E4602D40024204670BDFFF773
:1019B800B7FF04460028F7D03146284602F0B2FCAB
:1019C800F3E700BF8C570008095B0008044B054A81
:1019D80053F82130D25C835843F001038350704799
:1019E8008C570008095B0008044B054A53F821305E
:1019F800D35CC05800F00100704700BF8C57000846
:101A0800095B000838B50A4B0A4A53F82130D25C02
:101A1800835823F00103835004462046FFF7E4FF70
:101A280005460028F9D12046FFF74AFF284638BD69
:101A38008C570008095B0008054B064A53F821300B
:101A4800D35C1844436923F080034361704700BFA7
:101A58008C570008095B000841B14389043B0C2BF3
:101A68009ABF034A52F82300002070470389F5E71C
:101A78003856000841B10389043B0C2B9ABF034A2E
:101A880052F82300002070474389F5E70456000800
:101A98002DE9F843D0F80480D0F81090D8F8080061
:101AA80017460D461E4602F0B4F9B7F5001F044666
:101AB80016D12846D8F80840FFF732FB84420CD1EB
:101AC800294602F0A6F90446FFF7C8FA2046FFF7B0
:101AD80015FB00212046FFF7C9FA0020BDE8F8836E
:101AE800B7F5800F20D0B6F1806F19D0B6F1C06F6E
:101AF80018D0B6F1007F1AD1022610494A4620466E
:101B0800FFF7DCFAB0B9D8F80810284602F084F9D3
:101B180020463146FFF7AAFA2046FFF789FADCE7A4
:101B28000126EAE70326E8E76FF08500D6E76FF0BD
:101B38001500D3E76FF00F00D0E700BF614600083B
:101B480038B5036904465860084D284603F0D2F8B2
:101B580040B16168AB680C311B682846984700EAB9
:101B6800E07038BD6FF01200FBE700BF2451000899
:101B780043681B689A68510682B009D50C490A68FF
:101B880001320A60DA680092009A9A680092009A14
:101B98009A68120706D507499B680A6801930132BB
:101BA800019B0A60044A13680133136002B070474E
:101BB800B0190020AC190020B419002070B500221B
:101BC8004D6886B004460E46002300F16001806C23
:101BD80000F0E4FF002832DB94F865302A68002B17
:101BE8002FD0D36943F44073D361A169184BE26CD9
:101BF80043F821602B68049294F83B20039294F8F0
:101C08003A200292226E019294F83920009260697B
:101C18000C3304F11C0202F076FE00280FDB2A6860
:101C2800536843F0010353602A68536843F0200364
:101C380053602A68D36943F44063D361002006B037
:101C480070BDD36923F4407343F48073CCE700BFBD
:101C5800D819002038B54D682A68536823F0020364
:101C680053602A68536823F0200353600446D0E980
:101C780005018368DB689847216E21B1A06C03F0E9
:101C880086F800232366642003F025F82A68D369C0
:101C980023F44063D361A269024B002143F8221068
:101CA80038BD00BFB819002038B54D682A68536898
:101CB80023F0010353602A68536823F0200353601C
:101CC8000446D0E905018368DB689847216E21B195
:101CD800A06C03F05CF8002323662A68D36923F418
:101CE8004063D361A269024B002143F8221038BD3A
:101CF800D81900202DE9F74313784668056914467A
:101D08009278112B34BF10232023520714BF627816
:101D1800022211B101291DD174352968012962D81F
:101D2800012185F86510E17811F0060C0CBF01213E
:101D3800002185F86510676805F140087FB92846D5
:101D48002B6F984714223946404603F021F92F603B
:101D5800002031E0022946D16FF057002CE02146DF
:101D680004F1140751F804EB48F804EBB942F9D12F
:101D78006768BCF1000F22D196F814C007FB03F185
:101D88005143BCF1000F1AD0102B14BF04270827A9
:101D98004F434FF00108D0F804904948D9F808207B
:101DA800D9F80410002301938368DB68012A88BFEF
:101DB80008314BB96FF0040003B0BDE8F0835F430E
:101DC80057434FF00008E6E701AA98470028F1DBDF
:101DD800019B03EB5703B3FBF7F303F00101C3F3D4
:101DE8004603012B02D86FF01500E5E7D9F800008B
:101DF800026A22F0FF0213430362D9F80020136A33
:101E080023F4807343EA012313623368B8F1000FA7
:101E180003D11A6A22F4007202E01A6A42F40072CC
:101E28001A622378102B0ED13268D36923F0070386
:101E3800D361A37803F00703042BD4D8DFE803F0B9
:101E480015262D323900182B06D13268D36923F0B4
:101E5800070343F00303EBE7202BC4D13268D369AF
:101E680023F0070343F00503E2E73268D36923F060
:101E7800B003D361A278336802F03002102ADA691D
:101E880008BF42F00802DA61012760E73268D369C7
:101E980023F0B00343F03003EBE73268D36943F033
:101EA800B003E6E73268D36923F0B00343F01003C8
:101EB800DFE73268D36923F0B00343F02003D8E7A3
:101EC80024510008F7B51D4951F82250002B6F68BE
:101ED8002C6908DA042323602946204603B0BDE8AC
:101EE800F040FFF7E1BE2368042BF5D0A06C266E06
:101EF8000022002304F1600100F050FE0028E9DB15
:101F08003A68E36C0093D4E90501236E0C3202F0C1
:101F18009BFD0028E0DBE26C314604F1540002F03E
:101F280013FC0028D6DB201D00F066FE2368032B77
:101F380001D10123CFE703B0F0BD00BFD8190020BD
:101F48002DE9FF412A4951F822603469D6F8048006
:101F58001D1E04F1740701DA042318E0D4F8D41024
:101F6800D4F8BC0002F013FF0023C4F8D430636F28
:101F7800042B0DD0032B16D1ADB904F1C80002F023
:101F8800A4FB60B1D4F8E43038469847012363676E
:101F98003146384604B0BDE8F041FFF75BBE94F81F
:101FA800B030002BF2D094F8D830002BEED103AA31
:101FB80004F1D40104F1C80002F099FB002803DA07
:101FC800636F032BC8D1E1E704F1780000F014FE39
:101FD800D8F80030039A0092D4E92201D4F8D4202A
:101FE8000C3302F031FD0028D2DB04B0BDE8F081EB
:101FF800B819002070B588B04D6804460E4607AA87
:1020080000F16001543002F072FB002837DB201D1C
:1020180000F0F2FD94F865302A68002B31D0D369BE
:1020280023F4407343F40073D361A169174B43F859
:102038002160E36C049394F83B30039394F83A30AE
:1020480002932B680C33019394F839300093236E74
:10205800606904F11C0202F056FC00280FDB2A68B4
:10206800536843F0020353602A68536843F020031F
:1020780053602A68D36943F44063D361002008B0F1
:1020880070BDD36923F44073CEE700BFB8190020B0
:102098002DE9F74305694768002385F8B030D0F883
:1020A800049004462D4E304602F024FE20B96FF00D
:1020B800040003B0BDE8F083D6F80880D9F804100E
:1020C800D8F800303046984702460028EFD1D9F8B2
:1020D8000830012B2ED8F86801AA002102F0CBFCA9
:1020E8000028E6DB019B00221979186800F03CF80B
:1020F8000028DEDB3B692046984704220021A81807
:1021080002F087FE0422114605F1780002F081FEF4
:1021180020220021124802F03BFF20220021114812
:1021280002F036FFD5F8880002F0E4FD70B96FF0D0
:102138001200BEE7D9F80410D8F818300831002B7F
:10214800B5D0304698470028C5DAB0E7686902F08C
:10215800D1FD0028EBD00020ABE700BF24510008D8
:10216800D8190020B81900202DE9F0471E4F044661
:1021780000EBC1060025B44201D1002014E020681C
:10218800C30600F01F0911D4656845F02005C0F3A7
:10219800481AC0F344200F2823D857F82080B8F1F4
:1021A800000F0DD16FF01200BDE8F087B9F1100FE4
:1021B80004D0B9F1110FEAD16568E8E73025E6E700
:1021C800404602F097FD0028ECD04B462A460AF01C
:1021D8000F01404602F056FA002804F10804CADA52
:1021E800E2E76FF01500DFE794580008F8B50369D7
:1021F8000C465E6823794168012B34D09A1E5542FB
:102208005541AD026279022A9CBF354F37F812C09A
:10221800A27988BF4FF4005C042A27D0003B18BF7E
:1022280001231B03E279012A0A680CBF4FF44077A7
:102238000027A642D1681CD121F4B05129430B4391
:10224800D360136923F4405343EA0C0313614368D2
:102258001A68536923F440733B4353613168BDE8FE
:10226800F84002F08BBC4FF4C065CBE74FF48053C5
:10227800D8E701F4C0618D421FBFD16821F4C06165
:102288002943D160426811680A6902F440529445B2
:102298001FBF0A6922F4405242EA0C020A614268EE
:1022A8001168CA6802F4805293421FBFCA6822F4B8
:1022B80080521343CB6043681A68536903F4407330
:1022C8009F421FBF536923F440733B435361216806
:1022D8003368994203D002F051FC23683360F8BD9B
:1022E800085A00082DE9F04143681D680369D3F8CE
:1022F80004800B790C46012B4979A67933D1022940
:102308004CD9042E47D04FF480574FF4C0620323B2
:102318008B4240D1002F79D0002A14BF0322042217
:10232800B24238D1E37963B1012B34D13A4B9D42A3
:1023380007D0A3F54C439D4203D003F550439D427B
:1023480029D1EB6823F40053EB602146FFF74EFFD9
:10235800EB6843F40053EB6094E8030088E803005B
:102368000020BDE8F081022B08D1022921D9042ED2
:1023780011D04FF480624FF48057C8E702290A460B
:102388001FD9042E04D133B94FF480571A46BEE73B
:1023980063BB0329C4D06FF08500E2E71F4A042E0F
:1023A80032F811C0F7D04FF4C062033B012B10D8AC
:1023B800F1E71A4A042E32F811C0ECD04FF48062CB
:1023C800F3E7164A042E32F811C016D1002BE2D1D9
:1023D8001A464FF48057BCF5805F13D0BCF5405FB8
:1023E80012D0BCF1000F92D1012391E7033B012BDE
:1023F800D1D90022BFE70022D7E7002BFBD11A462C
:102408001F46E8E7002383E7022381E7002A14BF79
:102418000222032284E700BF00100140085A000886
:10242800F7B50669446805462648306002F062FC44
:1024380018B96FF0120003B0F0BD3068E168836826
:102448001B6898470028F6DB206A01AA002102F0E1
:1024580012FB0028EFDB019B002219791868FFF7AF
:1024680083FE0028E7DB6E682B6934685F68E368E1
:1024780023F40053E360706802F03CFC0028D8D0D5
:10248800D6E901018368DB6803B1984704F10C03BE
:1024980053E8003F43F00C0304F10C0141E800321B
:1024A800002AF3D139462846FFF7A0FE337D1BB139
:1024B800636943F008036361E36843F40053E3602E
:1024C8000020B8E72451000810B54FF0E0230F4969
:1024D8009C691A6908689B690D4902F4803234B90D
:1024E80093B903464AB90A681044C01A10BD002BB4
:1024F80008BF03460AB9A342F5D90A6802440A602C
:102508004FF0E0221269EEE70446F3E7FC190020D9
:10251800F81900200A4B102283F82320094B4FF4A6
:1025280016521A60084B002018604FF0E02342F260
:102538007F525A6198611A6942F007021A6170471E
:1025480000ED00E0FC190020F8190020684620F092
:1025580007018D4619B5FFF7B7FF114B1149D3E9AC
:1025680000420868001942F10002C3E900020E4A5D
:1025780000230B60D2E900414FF41653001BB0FB57
:10258800F3F043431B1941F10001C2E9003101F0A6
:102598007BF8FEF7ABF8BDE819408546704700BFE9
:1025A80088150020F8190020801500202DE9F04139
:1025B800DFF8DC8099B1421C0BD14FF0E02213699F
:1025C80023F0010313614FF07F43C8F80030BDE8E2
:1025D800F081D8F80060012807DC00270BE0431CD5
:1025E800D8F80060F7D140F2D26040F2D363984245
:1025F800A8BF1846471EEFF31185102383F31288EE
:10260800BFF36F8FFFF760FF224C4FF0E02399690B
:10261800D4E90023801843F10003C4E900031E4BEA
:1026280000221A601D4B1A68831A2ED44FF4165CC8
:102638000CFB073303F515533F33B3FBFCF7131AB1
:102648000CFB0733B3F5806F154A38BF4FF480632E
:10265800934228BF13464FF0E022C8F80030013BF0
:1026680090695361002393618142A1EB0003D4E98F
:10267800001238BF9B195B1842F10002C4E900320E
:1026880085F31188BFF36F8FA1E74FF48063E2E70A
:10269800FC19002088150020F8190020801500205A
:1026A80000C3FF0038B5EFF31185102383F31288B8
:1026B800BFF36F8F084B1C68084B1B68E41AFFF7C1
:1026C80003FF85F31188BFF36F8F4FF4165320442F
:1026D800B0FBF3F038BD00BF88150020801500203E
:1026E80038B5EFF31185102383F31288BFF36F8F8A
:1026F800044B1C68FFF7E8FE85F31188BFF36F8F62
:10270800204438BD8815002008B513498B6803F0AC
:102718000C03042B1CD0082B1CD14A684B68496851
:1027280013F4800314BF0D480D48C1F3881118BF76
:10273800002302F03F02A1FB0001FDF729FD064B33
:102748005B68C3F3014301335B00B0FBF3F008BDE2
:102758000248FCE70248FAE70038024000127A0013
:102768000024F40070B51F4B595CD2E9023633439C
:102778001669455833435669334396693343D669D6
:102788003343966A25F45F35334325F478752B4334
:102798004350D36A441893B16569166B25F0070551
:1027A80033432B4363614358556B23F0C0732B436A
:1027B80043504358956B23F4C0032B43435053684D
:1027C800E3601368A3606368156A1B0C1B042B4342
:1027D80063604358526A23F06063134343500020F8
:1027E80070BD00BFCF5B0008002876D03C4B1A684C
:1027F80002F44042B2F5404F20D13A4A904215D8EF
:10280800394A904207D91A6802F44042B2F5004F9B
:102818005CD102201FE0354A90421A6802F4404217
:1028280047D9B2F5004F4CD1012014E01A6802F4E0
:102838004042B2F5004F3FD103200CE01A6802F481
:102848004042B2F5004F22D1274A90423ED8274A4B
:1028580090422ED90020224B1B68012838BF012046
:1028680003F44043B3F5804F1FD0214A136823F087
:10287800070303431360136803F0070398421CBF60
:10288800136803F00703C01A18BF012070471B68BC
:1028980003F44043B3F5804F0CD1134B98421AD838
:1028A800124B98424FF00000DFD9012838BF0120B1
:1028B800DBE71B680020D8E71B68032003F44043CC
:1028C800D0E71B68012003F44043CBE71B680220D4
:1028D80003F44043C6E70220C7E70120704700BF62
:1028E80000700040804A5D050090D00380C3C90194
:1028F800003C024038B5EFF31185102383F31288AA
:10290800BFF36F8F064B9C6802F007FA85F31188B6
:10291800BFF36F8F2046BDE83840FEF76BB800BFA5
:10292800001A002038B5094B53F82040013053F8FD
:102938002050A54200D838BD636823B1204602F074
:10294800EFF90834F5E723689847FAE77059000863
:1029580070B52B4B2B4C2C4D012286B003201A70DE
:10296800FFF7E0FF00F010FF02F0F6F90420FFF790
:10297800D9FF2646AE4204F1300410D300F024FCFF
:10298800204C224EAC4226D300F032FCFDF76AFD03
:102998001F4A137B23F00103137306B070BD54F86C
:1029A8000C3C059354F8103C049354F8143C0393DE
:1029B80054F8183C029354F81C3C019354F8203CFA
:1029C800009354E90A2354E90C0100F09FF954F8E4
:1029D800303C5E65CDE7D4E90A23B3F1FF3F08BF79
:1029E800B2F1FF3F05D052EA0301206803D100F09D
:1029F800B9FB3034C6E73146183000F0CBFDF8E7B4
:102A0800311A00200055000800550008FF4E000844
:102A18001016002008B50348034A0021121A02F0D4
:102A280097F908BD80010020341A002070B50023F2
:102A380086B00122CDE90423134E144D01930F22D1
:102A4800CDE902321249142303FB005506EBC016E8
:102A580004464FF4C07000FB04110E4B00954FF470
:102A6800A072304600F052F9737B0B4AEE6023F0F7
:102A7800100373734FF4046304FB033313442C747F
:102A88006B6006B070BD00BF90150020001A0020D2
:102A980080220020054E0008401A0020BFB5002003
:102AA800FFF740FF2C4B83F308882C4D2C4E6B69A5
:102AB8002C4F43F400736B610024F02385F8223017
:102AC800EC772C766C76AC7685F820406B6A43F40C
:102AD800E0236B62FDF762FFFEF780F84FF0FF33EB
:102AE800AB62EB62FEF740F9FEF79CF81E4BB36051
:102AF80040F201129A81C3E91844DC6602F0F9F841
:102B0800FDF7A8FD0120FFF70DFF0220174DFFF785
:102B180009FF00F0A3FB164B7561059301231549C6
:102B28000094CDE903434FF480623B46CDE901446C
:102B3800284600F0EBF86A7B064622F01002284689
:102B48006A7302F0ACF92046FFF770FF3A46314647
:102B58002846FEF725F800BF8022002000ED00E09F
:102B6800001A00205929000890160020101600208D
:102B7800D75B00080024002038B5064C064D00201D
:102B8800AC4200D338BD204602F0E7F80028F9DB54
:102B98001C34F5E75C0100207801002073B50C4671
:102BA800EFF31181102585F31288BFF36F8FC56885
:102BB8005DB125602B68C3608369013383610020A0
:102BC80081F31188BFF36F8F11E052EA030603D136
:102BD80025606FF00B00F3E7CDE9002302460830CB
:102BE80000F082FA18B9034B9B685B69236002B056
:102BF80070BD00BF001A002070B5EFF311861023D6
:102C080083F31288BFF36F8F0468A0421AD0CCB147
:102C1800D4E9003213605A60637B002523F0020375
:102C28006373C4E90055A56004F1180002F089F93E
:102C38002046A56702F033F931460848BDE87040E0
:102C480000F07EBAD0E902329A4218BF013383609D
:102C580086F31188BFF36F8F70BD00BF321A002052
:102C680013B5EFF31181102484F31288BFF36F8F2B
:102C7800846844B1013C846081F31188BFF36F8F8D
:102C8800002002B010BD52EA030406D181F3118876
:102C9800BFF36F8F6FF00F00F3E7CDE90023024613
:102CA800014800F021FAECE7321A00202DE9F04142
:102CB8000546EFF31188102383F31288BFF36F8F53
:102CC80000266FF00A072C68A54214D09CB1D4E9FD
:102CD800003213605A60637BA66023F00203C4E9E4
:102CE8000066637304F1180002F02BF9A767204609
:102CF80002F0D5F8E7E70023AB6041460248BDE89B
:102D0800F04100F01DBA00BF321A00202DE9F0434F
:102D1800073285B022F007020E467F321099017300
:102D280022F03F0210211F4600F15803C0E9163374
:102D3800417300230F9983603F2AC0E90633044694
:102D48008173C37306F14009A2F1400806D883F3E2
:102D58001188BFF36F8F0423184602DFB518294680
:102D68002046FDF7A3FC07300E9B20F00700A06665
:102D7800C4E9189802930D9B01932D1A0C9B00939C
:102D88002A463B4631462046FDF7D8FE00236365B8
:102D9800044B9B6803B1DB6EE366284605B0BDE8CB
:102DA800F08300BF001A0020094A93686FF00A01F7
:102DB8009967084958674B6843F080534B60002374
:102DC80083F31188BFF36F8F9368986F704700BFC4
:102DD800001A002000ED00E038B590F90D20437B83
:102DE800002A014604DA03F07F03437302F01DF85A
:102DF8000D4D2A46AB6852F8184F944200D004B9DA
:102E0800EC68994208D05A7B12F01B0F04D1DA897A
:102E18007F2A01D9A2692AB19C4202D0204600F03B
:102E2800FFFA23466B6138BD001A002070B590F98F
:102E38000D30427B002B38DB12F01B0F35D1836934
:102E4800002B32D11C4C62F07F024273224652F8AA
:102E5800181F914218BF0B46E16923B9C0E9002148
:102E68000860E0610CE090F90E5093F90E60B542ED
:102E78001CD0AE421ADD5968C0E9003108605860BC
:102E8800A569954200D005B9E568A3685A7B12F098
:102E98001B0F04D1DA897F2A01D9AA6952B1AB4242
:102EA80002D0284600F0BCFA656170BD9942D5D0C1
:102EB8001B68D2E76361F8E7001A00202DE9F843A0
:102EC800002A427B0CBF4FF010094FF0080919EA9D
:102ED800020F04460F4621D149EA0203D2092AD13A
:102EE8004373B9F1080F2CD04FF00008344E334625
:102EF80053F8185F9D4200D005B9F568B368AB4236
:102F080002D0284600F08CFAB9F1100F756144D14F
:102F1800BFF35F8F637B23F060036373284B9B6869
:102F28009C4247D1EFF30583002B43D13846BDE8D7
:102F3800F843FFF739BF03F07F03437301F075FFD0
:102F4800CFE7A36813B1204601F077FF04F118001A
:102F580001F0F7FFA56D04F15806AE4211D04FF00D
:102F6800000875B1284601F068FF05F1180001F066
:102F7800E8FFC5F878802846FFF758FFA56DAE42F0
:102F8800EFD10F4B9B689C42AED1EFF30588B8F1A7
:102F9800000818BF4FF00108A8E7B8F1000FB7D034
:102FA800084BB36040F201129A810022C3E918224B
:102FB800DA66ADE787F31188BFF36F8FBDE8F88352
:102FC800001A00209016002070B590F90D20437B60
:102FD800002A014604DA03F07F03437301F025FF5A
:102FE8004B7B1D4C63F07F0322464B7352F8183F0E
:102FF800E069934208BF002323B9C1E900200160BA
:10300800E1610CE091F90E5093F90E60B5421FD0C2
:10301800AE421DDD5868C1E9003001605960A569FC
:10302800A368954200D005B9E568994208D05A7B53
:1030380012F01B0F04D1DA897F2A01D9AA692AB1B3
:103048009D4202D0284600F0EBF92B46636170BD23
:103058009842D2D01B68CFE7001A002070B5214DE6
:10306800AA688242044624D1EFF305830BBBEFF331
:103078001186102383F31288BFF36F8F537B03F0FD
:103088007F0343F01003537301F0CFFE2B4653F830
:10309800184F9C4200D004B9EC68AB689C4202D03F
:1030A800204600F0BDF96C613046BDE87040FFF77E
:1030B8007BBE04F1180001F044FFEFF311811023E7
:1030C80083F31288BFF36F8F627B1A4004D081F3B9
:1030D8001188BFF36F8F70BD2046BDE87040FFF7C1
:1030E800EDBE00BF001A0020F8B5124B0C46114681
:1030F800114A98681060DDE90676EFF31182102214
:1031080082F31288BFF36F8F9D68284601F09FFEF7
:10311800B6F1FF3F08BFB7F1FF3F06D007493A466F
:10312800334605F1180000F035FA2046BDE8F840AE
:10313800FFF73ABE001A0020201A0020FF4E0008B0
:1031480049B9EFF3058030B9054B5A699B689A4233
:1031580001D0FFF729BE81F31188BFF36F8F704745
:10316800001A002010B5EFF31184102282F31288A0
:10317800BFF36F8F427BD10604D484F31188BFF369
:103188006F8F10BD22F010024273FFF74FFE2146E9
:103198000248BDE81040FFF7D3BF00BF321A002035
:1031A800034648B9EFF3058232B9064A5169926875
:1031B800914201D0FFF7F8BD83F31188BFF36F8FF9
:1031C800704700BF001A0020EFF31181102383F32A
:1031D8001288BFF36F8F054B9A68D37B013BD3737B
:1031E80081F31188BFF36F8F704700BF001A00206A
:1031F80070B5EFF31186102383F31288BFF36F8F36
:10320800154DAB68DA7B0132DA732A4652F8184F4B
:10321800944200D004B9EC685A7B12F01B0F04D119
:10322800DA897F2A01D9A2692AB19C4202D02046B4
:1032380000F0F6F823466B6186F31188BFF36F8FB1
:10324800EFF31180102383F31288BFF36F8FBDE86B
:103258007040FFF7A5BF00BF001A0020024B03F122
:103268001802C3E906227047001A0020F8B5EFF3E8
:103278001186102383F31288BFF36F8F1D4CA0684B
:10328800437B03F07F03437301F0CFFDA3685A7BB0
:10329800214662F07F025A7351F8182FE0698A427A
:1032A80008BF002222B9C3E900100360E3610CE003
:1032B80093F90E5092F90E70BD4217D0AF4215DD4A
:1032C8005068C3E9002003605360A5698D4200D0AF
:1032D80005B9E568A3689D4202D0284600F0A0F829
:1032E80065613046BDE8F840FFF75EBD8242DAD03E
:1032F8001268D7E7001A002050EA01032DE9F041CF
:1033080005460E4604D1FFF7B1FF0020BDE8F08165
:10331800831C71F1FF3324DB01F028FE4419EFF31D
:103328001188102383F31288BFF36F8F0F4F104B50
:10333800B8681860FFF750FDB8680E492A4633464A
:10334800183000F027F9BA68537B43F01003537321
:103358004046FFF729FD01F009FE201A20EAE07037
:10336800D4E76FF00104241AD9E700BF001A00203F
:10337800201A0020FF4E0008B1F1FF3F08BFB0F14E
:10338800FF3F08B506D10A4B9868FFF767FE4FF074
:10339800FF3008BDFFF7B0FFC11709304FF00A0230
:1033A8004FF0000341F10001FCF7F2FEF1E700BF26
:1033B800001A0020014B9868704700BF001A0020CF
:1033C800044BC01A044BC0105843044B01221A5432
:1033D800704700BF10170020ABAAAAAA321A002013
:1033E800C3897F2B13D80B4B1B686BB10A4B90F921
:1033F8000E201B689A420ADB437B13F01B0F06D191
:10340800064BC31A18BF012303F0010070470023BD
:10341800FAE700BF281A0020241A0020901500207F
:1034280070B50E4B0E4C1E7C06EB460304EBC30432
:103438000546204601F085FD0A4B002228469A558C
:10344800FFF7CEFF48B1084B08491A68013A2046F1
:10345800D317BDE8704000F09DB870BD001A002079
:1034680010170020321A0020281A0020C93300083B
:1034780038B5EFF31185102383F31288BFF36F8FEC
:10348800104B114A9C681068A04206D1FFF7C8FF8C
:1034980085F31188BFF36F8F38BD00211B7C116045
:1034A8000A4AD35C002BF3D02046FFF799FF002887
:1034B800EED0637B13F01B0F02D12046FFF784FD8B
:1034C8002046E3E7001A0020201A0020321A0020C4
:1034D8000748084A084908B5121A01F03BFC074892
:1034E800074A0849BDE80840121A01F033BC00BF7A
:1034F8000000002078010020285C0008000000205F
:1035080000000020285C0008034B1B680BB9FFF77C
:10351800C9B80020704700BF2C1A002030B570B120
:103528000B4B5B6898420AD0036843B1D3E9042186
:10353800D0E90445121941EB0501C3E90421D0E99A
:10354800003213605A600023C0E9003330BD00BF69
:103558002401002010B50E4B1C689C4204D1FFF7D3
:10356800D3FF6FF0004010BDFFF7CEFF002CF8D05E
:10357800D4E904321B1A62EBE072B3F1004F72F126
:103588000001EEDA002AACBF18460020EBE700BFC6
:1035980024010020B3F1FF3F08BFB2F1FF3FF8B5A7
:1035A80004461D4616465ED08160EFF3118710234E
:1035B80083F31288BFF36F8F013275F1FF3324DA7A
:1035C8002E49D1E900206FF001039B1A4FF0FF321A
:1035D80062EB00009E1B60EB0500012E70F10003FA
:1035E80001DA01260020C4E90460254ED6F800C09F
:1035F8007568B44508BF4FF0000CBCF1000F0DD141
:10360800C4E900652C6074601CE0FFF77DFF01369B
:1036180045F10005361845EBE070E4E7DCE90420E5
:10362800D4E90431934271EB000E1DDAD21ADCF8AA
:10363800043060EB0100CCE90420C4E900C31C603D
:10364800CCF804403368B34209D09C4207D10D4BF3
:103658001C6824B9FFF77EFF2146FEF7A7FF87F312
:103668001188BFF36F8FF8BD9B1A61EB0001AC4561
:10367800C4E90431C4D0DCF800C0BEE72817002034
:10368800240100202C1A00202DE9F84FEFF3118CAB
:10369800102383F31288BFF36F8FDFF8B0A0DFF831
:1036A800B0902C4FC9F80000DAF80000002450450B
:1036B80008BF00200025D7E90021D9F80030E046EE
:1036C80078B3D0E9046C4FEAE37EB3427EEB0C0B8F
:1036D80005DAF61A6CEB0E04C0E9046421E0B218AE
:1036E80041EBE671C0E90445C7E90021FFF716FF81
:1036F80088F31188BFF36F8F83689847EFF31188B9
:10370800102383F31288BFF36F8FD9F80030DAF8EB
:1037180000009B1B5045C446C9F80030CBD1D7E9FF
:1037280000219A1841EBE3730024C7E90023C9F884
:103738000040FFF70FFF2146FEF738FF88F3118896
:10374800BFF36F8FBDE8F84FFFF792BE240100204A
:103758002C1A00202817002010B5EFF3118410232D
:1037680083F31288BFF36F8FFFF7CEFE054A034637
:10377800D2E90001181841EBE37184F31188BFF313
:103788006F8F10BD28170020014800F0FDBA00BF58
:10379800DC5B00080FB407B5064B04AA186852F89A
:1037A800041B019200F028F803B05DF804EB04B0A4
:1037B800704700BFA4550008F8B50E4B1D68AB78DC
:1037C8009B07064612D56F6816F8014B29462CB997
:1037D8000A20B847002805DB204609E02046B847FC
:1037E8000028F1DAAB7843F00403AB704FF0FF30F8
:1037F800F8BD00BFA45500082DE9F04F8DB043680F
:103808000293837815469A07804640F10D8100247B
:103818000E78002E00F00A81252E0BD04B1C039346
:103828000134029B4146304698470028C0F2F68092
:103838000399EDE74E788B1C252E0393F0D00027D3
:10384800B946BB46BBF11F0F38D8A6F12003102B91
:103858000AD8DFE803F02A0909300909092109090A
:103868000928092D09091F00A6F13003092B33D9AE
:103878002A2E37D11BF0400F55F8043B40F08280C8
:10388800002BA7BF4BF0200B9946C3F100094BF062
:10389800280B01E04BF0010B039B13F8016B03931A
:1038A800002ECFD130E04BF0020B4BF0040BF3E7C6
:1038B8004BF0080BF0E74BF0100BEDE7BBF17F0F77
:1038C80019D8A6F13003092BD2D81BF0400F03D02A
:1038D8000A2101FB0737DFE70A2101FB09394BF011
:1038E800200BD9E72E2E06D11BF0400F40F09E800A
:1038F8004BF0400BD0E76C2E31D02BD8682E36D049
:103908006A2E3CD04C2E3AD0002F46F02003B8BF88
:103918002BF04002A3F16501BCBF1FFA82FB002710
:10392800022901D9612B2FD1073525F00705DFF8CA
:10393800ACA2083507271BF0080F66D00AEB070B67
:1039480056465E4563D1A4EB0A0A06EB0A02A9EBC8
:1039580007096FE1742E9FD07A2E9DD0D4E71BF013
:10396800800F18BF4BF4007B4BF0800B94E71BF4DF
:10397800807F18BF4BF4007B4BF4807B8CE74BF4C3
:10398800207B89E71F4687E7A6F16301122900F229
:10399800F080DFE811F013004F00EE00EE00EE00BB
:1039A800EE004F00EE00EE00EE00EE00EE00FE002E
:1039B800E900EE00EE001B00EE00AF0055F8043BF6
:1039C8008DF8183001270DF1180AB4E755F804AB43
:1039D800834BBAF1000F08BF9A461BF0400F14BF83
:1039E80039464FF0FF31504601F0DAFA0746A2E7B0
:1039F800029B41462020984700280FDB013EB74232
:103A0800F6D34C44A41BB14698E74E46F7E716F8A0
:103A1800010B029B41469847002892DA98F8023039
:103A280043F0040388F802304FF0FF3420460DB00D
:103A3800BDE8F08F1BF0800F34D01BF4007F2CD032
:103A4800073525F00705AA4669685AF8080B2BF0D0
:103A580010050029ADB237DA404261EB410145F467
:103A680080650DF1180B0A235A4601F0A5FAA0EB60
:103A78000B0301936B0662D5019B25F001019F4260
:103A880089B240F3A180002E00F0998015F0100251
:103A980040F09C80BB460D4623E0AA465AF8040B2A
:103AA800C117D4E7AA461BF4807F5AF8041B01D13A
:103AB8000846F5E71BF4007F15BF48B208B241F38A
:103AC800C01141F3C031C2E750EA0103C9D11BF06C
:103AD800400FC6D0002FC4D12BF0110295B2BB46BF
:103AE800019740F2064115EA01021CBF0BF1010BD8
:103AF80000222CE02BF010021FFA82FB0A231BF095
:103B0800800C49D01BF400711DBF073525F007054F
:103B1800AA46AA461ABF5AF8080B69685AF8040B4D
:103B280050EA010545D12BF016051BF0400FADB248
:103B380042D0002F40D12BF0170295B2019715F013
:103B4800100248D0019B002E42D103F1010B290736
:103B58005AD4EB0706D5D9456FDD0199A9EB0B03BC
:103B68005F18CB465B4649E04BF0100B10237826D4
:103B7800C5E7782B04D1C6F1780343F01003BEE7FC
:103B8800029B4146252098470028FFF647AF02349C
:103B980047E608230026B2E7AA461BF480715AF8C4
:103BA800040BBDD01BF400711ABFC0B2614680B2CD
:103BB800B6E72BF0060295B20DF1180B54E725F085
:103BC8001105ADB2BB468CE70D46B8E73B460D463E
:103BD80003F1020BBBE7DDF804B082E71E5C0008C6
:103BE800175C0008CDE904324146029B2020984723
:103BF8000028FFF613AF049B059A01339945F1DCC1
:103C0800A4EB0B01CC189B460AB3029B414630201B
:103C180098470028FFF602AF8EB901342744019B6C
:103C2800391B994224DC1D465DBB019AA9EB0B099F
:103C3800224455461446914435E0019F92E70234E8
:103C480041463046029B98470028E7DAE6E640F20C
:103C580006410D42E2D015F0020F14BF2B202020A0
:103C680015F4806F04F10104414618BF2D20E9E7DF
:103C7800029B414630209847002804F10104CEDA1F
:103C8800CCE606AB013D4146585D029B98470028AB
:103C9800CADAC3E6029B414620209847002804F16F
:103CA8000104FFF6BBAEA9EB0403002BF2DCBFE571
:103CB800704700EBC100408840087047F8B50346DC
:103CC800FFF7F7FFB0FA80F0C0F11F0003EB800C9C
:103CD800CA00DCF81060171D0C4606328DB256B9C2
:103CE800012101FA00F0D9680143D960CCF81040ED
:103CF800DD539D52F8BDF1000431585AD85303EBF7
:103D0800C0009E52C5805D52F4E7043A2DE9F041A7
:103D1800CC1D114424F0070421F007010E1BF708FD
:103D2800B7FA87F2C2F12405AD004FF00008073555
:103D3800C2F12002ED0804604146A760C4F80C8077
:103D4800920004F1100001F023F96B0043F0010325
:103D5800638004EBC5027B1B5900A4F800805180E6
:103D6800A21924F83550A2F80280A35304EBC70324
:103D780029465A8842F001025A802046BDE8F0419F
:103D8800FFF79CBF002070470FB407B504A951F88E
:103D9800040B0191FCF722FC03B05DF804EB04B0BE
:103DA80070477047012801D1EFF30583FEF7A2BDE4
:103DB80001460068FFF7F6BF00210120FFF7F2BFB8
:103DC80061B662B680F31188BFF36F8F704772B621
:103DD800002383F31188BFF36F8FBFF34F8F30BF7A
:103DE80062B6BFF36F8F7047202809D9B0F1004F32
:103DF80008D80138B0FA80F0C0F11F0040007047C1
:103E0800082070473E20704708B5FDF761F800208C
:103E180008BD01208840704700F003020432920078
:103E28000F23934043EA900010B5C3B29B0003F1FF
:103E3800804303F59C33020C9C6892FAA2F2B2FA12
:103E480082F224EA104091400143996010BD0B882A
:103E5800C3F30B0303F57D62C2F30B02782A82B029
:103E680014D803F1804303F50E3348681A680243F7
:103E78001A600B88C3F30B0303F1804303F50E3379
:103E880000201B680193019B02B070476FF085000A
:103E9800FAE70B88C3F30B0303F57D62C2F30B0249
:103EA800782A9FBF03F1804303F50E3349681A68E7
:103EB8009DBF8A4300201A606FF08500704707286D
:103EC80008D8EA23C34013F0010F14BF00206FF095
:103ED800850070476FF08500704710B50888C0F3FB
:103EE8000B00FFF7ECFF002820DB4A68FF2A1CD0F4
:103EF800D3B203F1804303F50E33C2F3423418689A
:103F0800C2F3042204FA02F220EA02021A604968A3
:103F1800CBB203F1804303F50E33C1F302421868B4
:103F2800C1F304218A4002431A60002010BD0888AA
:103F3800C0F30B0008B500F57D63C3F30B03782BC2
:103F48000AD800F1804000F50E304B6802689343B0
:103F580014BF0120022008BDFFF7B1FF002814BFDD
:103F680001200220F7E77047002208B511463820E3
:103F7800FCF7A8FD3820FCF797FD002211463920F0
:103F8800FCF7A0FD3920FCF78FFD002211463A20EE
:103F9800FCF798FD3A20FCF787FD002211463B20EC
:103FA800FCF790FD3B20FCF77FFD002211463C20EA
:103FB800FCF788FD3C20FCF777FD002211464420E1
:103FC800FCF780FD4420FCF76FFD002211464520D8
:103FD800FCF778FD4520FCF767FD002246201146D6
:103FE800FCF770FDBDE808404620FCF75DBD70B5E4
:103FF80005460E4641F28A3431462846FDF702FD51
:1040080040B1013C04D000210A20FFF7B5F9F3E7DD
:104018006FF00F0070BD38B505690C462846FDF7EE
:104028004FFC21462846FDF745FC21462846BDE8B9
:10403800384000F077B9F8B54668D6E904738B4282
:1040480005460C4613D93846FDF7CEFC68B9B36966
:104058001C2202FB043301229A7168682146FFF78B
:10406800DAFF21463846FDF7B1FC0020F8BD6FF0B5
:104078001500FBE72DE9F0410646406884690769A9
:104088001C2303FB01440D4663792BB9A3791BB9A3
:10409800BDE8F041FFF7BFBF29463846FDF762FC8F
:1040A80070B163791BB929463846FDF703FC676987
:1040B800012321692A463046BC46BDE8F0416047E5
:1040C80029463846FDF738FC58B1237E03B9A37159
:1040D80063791BB929463846FDF7F2FB6769002367
:1040E800E7E729463846FDF753FC18B167696FF0D2
:1040F8000403DEE7A07173682946186900F011F916
:1041080070682946FFF787FFF0E70021FFF7B2BF85
:104118000121FFF7AFBF0221FFF7ACBF0321FFF773
:10412800A9BF0421FFF7A6BF0521FFF7A3BF0621FA
:10413800FFF7A0BF0721FFF79DBF0068C0F300107D
:1041480070470068C0F3802070470068C0F30050D3
:1041580070470068C0F3806070474068C0F3001083
:1041680070474068C0F3802070474068C0F3005033
:1041780070474068C0F3806070470068C0F3401023
:1041880070470068C0F3C02070470068C0F3405013
:1041980070470068C0F3C06070474068C0F34010C3
:1041A80070474068C0F3C02070474068C0F3405073
:1041B80070474068C0F3C0607047006800F00100B5
:1041C80070470068C0F3801070470068C0F3004073
:1041D80070470068C0F380507047406800F00100E5
:1041E80070474068C0F3801070474068C0F30040D3
:1041F80070474068C0F38050704710238360704751
:104208004FF48063836070474FF480138360704776
:104218004FF08063836070471023C36070474FF48A
:104228008063C36070474FF48013C36070474FF0DA
:104238008063C36070472023836070474FF4006336
:10424800836070474FF40013836070474FF000633A
:10425800836070472023C36070474FF40063C360D6
:1042680070474FF40013C36070474FF00063C3609A
:1042780070470823836070474FF40073836070476A
:104288004FF40023836070474FF0007383607047DA
:104298000823C36070474FF40073C36070474FF43E
:1042A8000023C36070474FF00073C3607047042356
:1042B800836070474FF48073836070474FF48023A6
:1042C800836070474FF08073836070470423C36036
:1042D80070474FF48073C36070474FF48023C36006
:1042E80070474FF08073C360704701238360704745
:1042F8004023836070474FF48033836070474FF4E6
:104308008003836070470123C36070474023C36004
:1043180070474FF48033C36070474FF48003C36025
:104328007047704738B504460D46FDF7E7FA294649
:104338002046FDF7E9FA29462046BDE83840FDF752
:10434800E9BAC269B2F5005FD0E90C0313D0B2F53F
:10435800804F18D0D2B9B3F1807F08D0B3F1C07FB5
:104368000FD0B3F5000F14BF00200120704720F0D4
:1043780002000128F7E7B3F5000FF8D0B3F1807F0A
:1043880004D10328EFE7B3F5000FF9E700207047E1
:10439800431E022B88BF0020704743685B681B6977
:1043A8000B600020704743685B68586942400A40C8
:1043B80042405A610020704743685B680020996159
:1043C800704743685B680904996100207047436837
:1043D8005A6853694B4053610020704710B5036910
:1043E8009868F8B1884219D1DC6808689860A142D9
:1043F80000D1D860002008602AB19A680A60DA689B
:10440800996002B9D960002010E0814206D108689D
:104418002060D8688142EDD1DC60EBE70446006893
:104428000028F2D1002AE8D16FF0150010BDF0B5D0
:1044380044680120676888401E46C2F3801327EA53
:1044480000078B403B43636090FAA0F7B7FA87F701
:10445800D4F808C04FF0030E7F000EFA07F72CEAD5
:10446800070C90FAA0F7B7FA87F7C2F3C1137F00D9
:10447800BB4043EA0C03A36090FAA0F3B3FA83F3BA
:10448800E7685B000EFA03F327EA030790FAA0F344
:10449800B3FA83F302F030055B00C2F341229A407D
:1044A8003A43202DE26016D107292BD890FAA0F3C1
:1044B800226A2BB3B3FA83F39B000F2101FA03F3AB
:1044C80022EA030290FAA0F3B3FA83F39B0006FAF8
:1044D80003F31343236290FAA0F3B3FA83F3226839
:1044E80090FAA0F05B000321B0FA80F02D0901FAE0
:1044F80003F3400022EA030385401D432560F0BD15
:104508002B46D9E7030A616A93FAA3F282B1B2FA99
:1045180082F292000F2793FAA3F3B3FA83F307FA10
:1045280002F29B0021EA02029E4016436662D2E72D
:104538002A46EEE7F8B512F4003C076906460C4631
:10454800134627D09A071ED55D0740F18280502276
:10455800D80603F4403518D542F4007225B13969FC
:1045680021FA04F0C00746D518036AD571680123FB
:104578004968A3408B61706800232146FFF757FF05
:10458800002D4CD114E01022E2E79906E6D542F45A
:104598008062E3E7D00302F4403520D5DA0612D56D
:1045A800002D46D12B464FF400727068FFF73FFF8D
:1045B8003B6923FA04F2D20731D50122A24023EA4B
:1045C80002033B612BE013F0200004D04DBB2B46C7
:1045D8004FF48062E9E7B5B92B462A46E5E715B9F5
:1045E8002B463022E1E7396921FA04F212F0010F73
:1045F8004FF030020ED10120A04001433961BCF1D7
:10460800000FB1D106E0396921FA04F212F0010273
:10461800F1D00246706800232146FFF708FF00200A
:10462800F8BD396921FA04F212F0010F4FF48062E3
:10463800E0E7396921FA04F212F0010F4FF4007231
:10464800D8E7590397D50121A1403046FFF7B9FEB5
:1046580091E76FF08500E3E770B50B46896805467A
:1046680011B15E680C6801B970BD8A682A4002D031
:104678004B68304698471CB1236821461C46F2E730
:104688002346FAE7F8B51F46044640680E46154625
:10469800FFF7CDFE112F07D101212B0501FA06F1F5
:1046A80004D563685B6899610020F8BD2046FFF770
:1046B80088FEF9E70246806810F002001EBF906885
:1046C80080F08000C0F3C0107047EFF31183102210
:1046D80082F31288BFF36F8F0189C288914283F3F6
:1046E8001188BFF36F8F14BF002001207047F8B501
:1046F80004460E461546EFF31187102383F31288FC
:10470800BFF36F8FFFF7E1FF30B187F31188BFF375
:104718006F8F6FF00B00F8BD2289236853F8323091
:1047280033602289236803EBC2035B682B6023890B
:10473800A28801339BB29A4298BF0023238187F352
:104748001188BFF36F8FE6E770B5EFF3118410237C
:1047580083F31288BFF36F8FC58886886B1C9BB262
:104768009E4298BF002306899E4206D184F3118891
:10477800BFF36F8F6FF00B0070BD066846F83510F9
:10478800C588016801EBC5014A60C38084F31188BC
:10479800BFF36F8F0020EFE72DE9F041054604696C
:1047A800D0F804800E4611B1012907D17434042AC7
:1047B80069D8DFE802F00818426C7900022962D152
:1047C8006FF0570061E02368012B1BD1A36E2946C7
:1047D80020469847002858DB02232360002384F8EA
:1047E8006430002051E0EFF3118310221F4682F35A
:1047F8001288BFF36F8F2268022A06D083F31188CC
:10480800BFF36F8F6FF004003FE0D8F80000FFF7A8
:1048180051FF28B103232360002384F83C3007E0CC
:10482800E36E2946204698470123236084F86430C4
:1048380087F31188BFF36F8FD3E7EFF31187102346
:1048480083F31288BFF36F8F2368022B02D087F39C
:104858001188D5E7012E14D104F15400FFF735FF74
:1048680018B9032323600123D7E7D8F80000FFF71E
:1048780021FF0028F5D1E36E294620469847266097
:10488800D6E7002EC1D06FF01500BDE8F08123688F
:10489800002BB7D0E36E294620469847236F204661
:1048A8009847012323609CE72368042BAAD101239E
:1048B80023602046236F984793E770B504692368FF
:1048C8000E46154613B96FF0040070BD042B09D1CC
:1048D8002A46314604F15400FFF709FF0028F2DBAD
:1048E8000020F2E7226D531C1CBF22EAE2720A2361
:1048F80004F1040014BF82FB03231346FEF7B0F94A
:104908000028E5DAE1E72DE9F04389B004460D46D1
:1049180016460021182202A81F469DF840909DF8CF
:10492800488000F035FB149B0593119B0097019379
:10493800B9F1000F06D19DF81C30022262F38303FF
:104948008DF81C30B8F1000F06D19DF81C300222FA
:1049580062F305138DF81C309DF81D309DF84C202E
:1049680062F303038DF81D30C6F810D0A3683246F1
:104978001B68294620469847002804DBA368294677
:104988009B682046984709B0BDE8F08373B5044694
:10499800002500F154066A4601A93046FFF7A7FE34
:1049A80018B104343DB902B070BD0199A06C00F093
:1049B800EEF90135EFE72046FEF71EF9013DF1E774
:1049C80037B5044600F154056A4601A92846FFF7A1
:1049D8008EFE28B1201D03B0BDE83040FEF766B951
:1049E8000199A06C00F0D3F9EEE708B52320002266
:1049F8000521FCF767F8BDE808402320FCF754B808
:104A080070B50469636F013B012B0E46154618D833
:104A1800D4F8C420531C1CBF22EAE2720A2304F112
:104A2800780014BF82FB03231346FEF719F9002808
:104A380009DB2A46314604F1C800BDE87040FFF79B
:104A480083BE6FF0040070BDF7B58668089F76686E
:104A580004460D465EB10097B047002809DBA368FD
:104A68009B682946204603B0BDE8F04018476FF020
:104A7800570003B0F0BD30B50368136005790468CA
:104A880004EBC504A34202D36FF0010030BD5C798A
:104A98008C4201D00833F0E70020F7E74368C1F300
:104AA8004B101B6801F01F01C05801238B400342C3
:104AB80014BF0123002313700020704710B543680A
:104AC800C1F34B101A6801F01F01845801238B4071
:104AD80023438350002010BD10B54368C1F34B1425
:104AE800186801F01F01235801228A4023EA0203B3
:104AF8002350002010BD38B504460D46FFF7DEFFF1
:104B080029462046FFF7E8FF002038BD82B0036839
:104B18000193019B43680193019B02B0704708B55C
:104B28004368186802680368D9070368C2F3C002BB
:104B380048BF42F002029B07036848BF42F00402E4
:104B48005907036848BF42F02002DB0542BF6FF4F3
:104B5800807342F008020360D10701D5FFF7D6FF42
:104B6800930701D5FFF7D2FF510701D5FFF7CEFF15
:104B7800930601D5FFF7CAFF104608BD37B502698D
:104B8800436810681C680D46D9688368DB68E3B120
:104B980001AA9847002818DBE368019823F400432A
:104BA8001921E360AA00AB0FA0FB0101FBF7F0FAA3
:104BB8006422B0FBF2F102FB11031B013233B3FB99
:104BC800F2F303EB01139BB2A36003B030BD10B541
:104BD80043681B6810201A681206FCD5EFF311828F
:104BE80080F31288BFF36F8F1C68240604D482F305
:104BF8001188BFF36F8FEEE7596082F31188BFF316
:104C08006F8F10BD08B54368186803681A0701D587
:104C1800FFF77CFF03689B0643BF43680B700020C7
:104C28004FF0FF3008BD03695B681B680B60436881
:104C38001B68DB6803F4C063B3F5806F2FD0A3F55E
:104C4800C06CDCF1000343EB0C030B7143681B6879
:104C58001B6903F44053B3F5805F22D0B3F5405F7E
:104C680021D0002B0CBF012303234B7143681B6821
:104C7800DA68DB68D20403F4C06316D5002B14BFCE
:104C8800032304238B7143681B685B6903F4407337
:104C9800A3F5407253425341CB7100207047022361
:104CA800D3E70023E1E70223DFE7002B14BF022349
:104CB8000323E7E70023C0E90033C0E90233C0E972
:104CC8000433C0E90633C0E90833C0E90A33C0E950
:104CD8000C338363704738B5044648B1FDF700FDCF
:104CE800602305465C43FDF7FBFC431BA342FAD354
:104CF80038BD704740B1C368587810F001001EBF36
:104D08001878B0FA80F040097047EFF31183102348
:104D180083F31288BFF36F8FFEE708B5FFF7F5FF3F
:104D280010B5D0E9003433B90020E268537843F075
:104D38000103537010BD204698470028F4D000287E
:104D4800B8BF4042E368FF28A8BFFF201870ECE70F
:104D580000F01EB900F00EB970474169836843EA54
:104D6800010212F003020FD1C2600269013A01FB8D
:104D7800023382689A4201D900207047C2681A60DB
:104D88004269C3609B1AF4E76FF0150070472DE97C
:104D9800F04105460F46EFF31188102383F312887C
:104DA800BFF36F8FC668F6B90468A0421BD0D4B1B0
:104DB800D4E9003213605A60637BA66023F00203D3
:104DC8006373C4E9006604F1180000F0BAF82046DD
:104DD800A667676100F063F8414605F10800BDE881
:104DE800F041FEF7ADB93E60AB69EF60013BAB61E6
:104DF80088F31188BFF36F8FBDE8F08108B51024E0
:104E0800EFF3118384F31288BFF36F8FFEF7DFFF90
:104E1800F6E73AB18A4205D3C0E90212C0E90000B8
:104E2800002070476FF015007047D0E9003213601A
:104E38005A600023C0E90033704708B5FFF7F5FF53
:104E4800437B23F0020343730023836008BD38B516
:104E580004460D46FDF7C0FF637B43F0020363730E
:104E6800E5B1A5602B689D4209D16B68C4E9005380
:104E78001C606C6012E06A689A42F6D01B68002BCE
:104E8800F3D094F90E2093F90E108A42F3D0914290
:104E9800F1DD5A68C4E9003214605C6038BD10B5B1
:104EA800EFF31184102383F31288BFF36F8FFDF79C
:104EB800BDFF84F31188BFF36F8F10BD10B5014695
:104EC800EFF31184102383F31288BFF36F8F437BB2
:104ED80013F0280F0AD183680BB1FFF7AEFF4B7BA5
:104EE80023F010034B730846FDF7A0FF84F31188E5
:104EF800BFF36F8F10BD01211838FFF7DFBFEFF345
:104F08001181102282F31288BFF36F8F027BD207C0
:104F18000CD581F31188BFF36F8F002383F31188B9
:104F2800BFF36F8F0423184602DF7047437B1B07CC
:104F380004D581F31188BFF36F8F70470122FDF705
:104F4800BDBF10B5EFF31184102282F31288BFF3AE
:104F58006F8F03683BB1FEF7E1FA002084F31188F4
:104F6800BFF36F8F10BD6FF01500F7E708B5FEF7B8
:104F7800F3FB08BD0A44914200F1FF3300D17047AA
:104F880010B511F8014B03F8014F9142F9D110BD4A
:104F980002440346934200D1704703F8011BF9E726
:104FA80010B5024601448A42134603D01C780132E8
:104FB800002CF8D1181A10BDF0B5C3F13707044614
:104FC800FFB203F01F031046082BE6B233D0102BB4
:104FD8003ED06508A40844EA817445EAC1752D19D4
:104FE8004FEA910242EB5102290941EA02716D1818
:104FF80042EB1212290A41EA02616D1842EB1222B1
:10500800290C41EA02416D1842EB1242AD1842F1F7
:105018000002EC0844EA4274D10804EB8402A6EBCF
:105028004205EDB2092D0CD90134A5F10A0541F16B
:105038000001EDB212E0E40844EA417406F0070505
:10504800C908303554EA010200F8015BBCD1F0BD53
:10505800240944EA017406F00F050909092D84BFE3
:10506800ED19EDB2EDE70000014800687047000057
:0450780030170020CD
:08507C0050B1FF7F01000000AC
:10508400011200082451000849060008000000002D
:10509400812B0008000000000000000038510008C7
:1050A400491B0008D8510008491B00080052000899
:1050B40015140008605100088D0F00084C510008B9
:1050C400491B0008EC510008491B0008C4510008A2
:1050D400491B0008B0510008491B00089C510008F6
:1050E400491B000888510008491B00087451000836
:1050F4002924000814520008292400082852000812
:1051040081130008000000001D25000800000000B5
:10511400010F000800000000992000083C5200081C
:10512400E75A000800000000485500083E0100202E
:10513400000000008E5B0008D458000838550008B1
:105144005401002000000000C95A000800000000BB
:10515400000000003C01002050170020F45A000811
:10516400A8550008C455000840010020D0170020AD
:10517400115B0008AC5700080055000842010020EC
:10518400BC1800201F5B0008C05700080055000829
:1051940044010020D01800202D5B0008D4570008DB
:1051A4000055000846010020E41800203B5B00087D
:1051B400E85700080055000848010020F8180020AE
:1051C400495B0008FC570008005500084A0100200C
:1051D4000C190020575B00081058000800550008FF
:1051E4004C01002020190020655B000824580008A9
:1051F400005500084E01002034190020735B00089C
:1052040038580008005500085001002048190020B3
:105214009F5B0008D8580008645500085601002018
:1052240000010020AF5B0008245900086455000801
:105234005801002010010020815B00084C58000830
:0C52440024550008520100201800002032
:1052500000000000C13D000800000000C13D000842
:1052600000000000C13D000800000000C13D000832
:1052700000000000C13D000800000000C13D000822
:10528000C75A0008250F0008C55A0008250F000856
:10529000C35A0008250F0008C15A0008250F00084E
:1052A000BF5A0008250F000800000000C13D00089B
:1052B00000000000C13D000800000000C13D0008E2
:1052C00000000000C13D000800000000C13D0008D2
:1052D00000000000C13D000800000000C13D0008C2
:1052E00000000000C13D000800000000C13D0008B2
:1052F00000000000C13D000800000000C13D0008A2
:1053000000000000C13D0008BD5A0008250F00083C
:1053100000000000C13D000800000000C13D000881
:1053200000000000C13D000800000000C13D000871
:1053300000000000C13D000800000000C13D000861
:1053400000000000C13D000800000000C13D000851
:1053500000000000C13D000800000000C13D000841
:1053600000000000C13D00083C520008791B000805
:1053700000000000C13D000800000000C13D000821
:1053800000000000C13D000800000000C13D000811
:10539000BB5A0008250F000800000000C13D0008AE
:1053A00000000000C13D000800000000C13D0008F1
:1053B00000000000C13D000800000000C13D0008E1
:1053C00000000000C13D000800000000C13D0008D1
:1053D00000000000C13D000800000000C13D0008C1
:1053E00000000000C13D000800000000C13D0008B1
:1053F00000000000C13D000800000000C13D0008A1
:1054000000000000C13D000800000000C13D000890
:10541000605100081341000860510008194100085C
:10542000605100081F410008605100082541000834
:10543000605100082B41000800000000C13D000839
:1054400000000000C13D000800000000C13D000850
:1054500000000000C13D000800000000C13D000840
:1054600000000000C13D000800000000C13D000830
:1054700060510008314100086051000837410008C0
:10548000605100083D41000800000000C13D0008D7
:1054900000000000C13D000800000000C13D000800
:1054A00000000000C13D000800000000C13D0008F0
:1054B00000000000C13D000800000000C13D0008E0
:1054C00000000000C13D000800000000C13D0008D0
:1054D00000000000C13D000800000000C13D0008C0
:1054E00000000000C13D000800000000C13D0008B0
:1054F00000000000C13D000800000000C13D0008A0
:105500003D450008A3430008AF430008C14300081D
:10551000CB430008D7430008991A0008E543000868
:045520000000000087
:10552400FD1C000800000000C3480008094A0008E8
:04553400A147000883
:10553800A54A0008C54A0008E14A0008FF4A0008D1
:10554800573E00089B3E0008000000005911000863
:0C555800373F000800000000E33E0008A0
:105564000D4C0008D74B0008274B0008ED2200081B
:045574002F4C0008B0
:10557800000000200000000000000B0602000000F0
:105588008C55000800000008AC5A000824000207E7
:1055980000000020B45A000820000B110800002069
:1055A8003000000000004000713F000801000000CA
:1055B8000064024008000000DC1700207514000891
:1055C800B11700083F4000083D1700080000000020
:1055D80000000000D11300080000000000000000D7
:1055E800000000000000000000080000001000009B
:1055F8000000000000200000004000000000200023
:105608000000000000000000000000000000400052
:105618000000000000000000000000000000000082
:105628000000000000000000000000000000600012
:1056380000008000000000000000000000000000E2
:105648000000000100000000000000000000000051
:105658000000000000000000000000000000000042
:1056680000008001C3410008CB410008D341000875
:10567800DB410008E3410008EB410008F341000862
:10568800FB410008F3420008F9420008FF42000805
:10569800074300080F430008154300081B43000890
:1056A80023430008B7420008BD420008C54200086D
:1056B800CD420008D5420008DB420008E34200085A
:1056C800EB4200087B42000881420008894200083A
:1056D80091420008994200089F420008A74200082A
:1056E800AF420008834100088B410008934100083D
:1056F8009B410008A3410008AB410008B3410008E2
:10570800BB410008434100084B41000853410008D1
:105718005B410008634100086B41000873410008C1
:105728007B4100083F420008454200084D420008FE
:10573800554200085D420008634200086B420008B9
:105748007342000803420008094200081142000899
:105758001942000821420008274200082F42000889
:1057680037420008000000000000000200000004AA
:1057780000000006000000080000000A0000000CFD
:105788000000000E00000000010000000200000000
:1057980003000000040000000500000006000000EF
:1057A80007000000FFFF0000001C02400700000087
:1057B8003000000080000000FFFF000000180240D9
:1057C800060000003000000040000000FFFF00005D
:1057D8000014024005000000300000002000000016
:1057E800FFFF00000010024004000000300000002D
:1057F80010000000FFFF0000000C02400300000042
:105808003000000008000000FFFF00000008024010
:10581800020000003000000004000000FFFF00004C
:1058280000040240010000003000000002000000F7
:10583800FFFF0000000002400000000030000000F0
:105848000100000000300140645800080100000019
:105858006C580008F34900080000000044000000EC
:105868000010000074580008010000007C5800086F
:1058780003000000A5000000800100008500000072
:1058880000000000E50000000000000000520008D1
:10589800EC510008D8510008C4510008B051000864
:1058A8009C5100088851000874510008000000004D
:1058B80000000000000000000000000000000000E0
:1058C8000000000000000000000000000038024056
:1058D800004400403851000811040000FC5800083A
:1058E80001000000000000000000000000000000AF
:1058F8000459000840000000000002000C5900088C
:1059080001000000145900080200000047000000D0
:1059180000020000670000000000000000100140C5
:1059280038510008840400004859000801000000AC
:1059380000000000000000000000000050590008AE
:105948004400000010000000585900080100000041
:105958006059000802000000C702000000020000B1
:10596800E70200000000000084500008845000088E
:105978000C51000814510008245100082451000853
:105988008B0CF8182725FB30563C1C473351815A9D
:10599800F1626C6AE17040767C7A897D617FFF7F75
:1059A800617F897D7C7A4076E1706C6AF162815A08
:1059B80033511C47563CFB302725F8188B0C000048
:1059C80074F307E7D8DA04CFA9C3E3B8CCAE7EA551
:1059D8000E9D93951E8FBF89838576829E80018058
:1059E8009E8076828385BF891E8F93950E9D7EA5A6
:1059F800CCAEE3B8A9C304CFD8DA07E774F3FFFF46
:105A080000100000003049325320646576696365F0
:105A1800206E6F74207265616479004661696C65F7
:105A28006420746F20636F6E6669677572652049BC
:105A380032532073747265616D004661696C6564E8
:105A480020746F20616C6C6F6361746520545820FA
:105A5800626C6F636B00436F756C64206E6F7420AB
:105A6800777269746520545820627566666572207D
:105A780025640A00436F756C64206E6F742074721D
:105A880069676765722049325320747800416C6CED
:105A98002049325320626C6F636B7320777269748C
:105AA80074656E00464C4153485F30005352414D77
:105AB8005F30000A06050504010301020101010027
